:020000040800F2
:1000000028080020CD01000815060008B9050008E1
:1000100011060008070300081B1300080000000079
:10002000000000000000000000000000B50700080C
:100030000B030008000000009D060008A10800084E
:10004000E7010008E7010008E7010008E7010008F0
:10005000E7010008E7010008E70100080D030008B8
:10006000E7010008E7010008E7010008E7010008D0
:10007000E7010008E7010008E7010008E7010008C0
:10008000E7010008E7010008E7010008E7010008B0
:10009000E7010008E7010008E7010008E7010008A0
:1000A000E7010008E7010008E7010008E701000890
:1000B000450B0008E10C0008E7010008E701000813
:1000C000E7010008E7010008E7010008E701000870
:1000D000E7010008E701000809110008E70100082E
:1000E000E7010008E7010008E7010008E701000850
:1000F000E7010008E7010008E7010008E701000840
:10010000E7010008E7010008E7010008E70100082F
:10011000E7010008E7010008E7010008E70100081F
:10012000E7010008E7010008E7010008E70100080F
:1001300000F002F800F03AF80AA090E8000C8244BF
:100140008344AAF10107DA4501D100F02FF8AFF29C
:10015000090EBAE80F0013F0010F18BFFB1A43F0A5
:1001600001031847382C0000582C0000103A24BF17
:1001700078C878C1FAD8520724BF30C830C144BF0C
:1001800004680C607047000000230024002500264E
:10019000103A28BF78C1FBD8520728BF30C148BFEA
:1001A0000B6070471FB51FBD10B510BD00F071F892
:1001B0001146FFF7F7FF01F051FC00F08FF803B490
:1001C000FFF7F2FF03BC00F097F8000009488047F2
:1001D00009480047FEE7FEE7FEE7FEE7FEE7FEE729
:1001E000FEE7FEE7FEE7FEE704480549054A064B41
:1001F00070470000A508000831010008280200200F
:100200002808002028040020280400204FF0013C8A
:1002100050F8042B51F8043B9A4221D1A2EB0C0375
:10022000934313EACC1317D150F8042B51F8043B35
:100230009A4215D1A2EB0C03934313EACC130BD1D2
:1002400050F8042B51F8043B9A4209D1A2EB0C035D
:10025000934313EACC13DBD04FF00000704700BF8C
:10026000D01A01BAB1FA81F101F0180122FA01F0B5
:10027000CB40C1F12001DBB2C0B2C01A2CFA01F3AD
:10028000D11A914311EAC311E6D170477047704704
:100290007047754600F02CF8AE4605006946534697
:1002A00020F00700854618B020B5FFF79DFFBDE898
:1002B00020404FF000064FF000074FF000084FF0CD
:1002C000000B21F00701AC46ACE8C009ACE8C0095E
:1002D000ACE8C009ACE8C0098D46704710B50446CB
:1002E000AFF300802046BDE81040FFF768BF000074
:1002F00000487047C801002001491820ABBEFEE746
:1003000026000200704700BFFEE770472DE9F0416C
:10031000022000F03BF840B30121154800F000FD39
:100320000021134800F06FFE00BF0221114800F0C9
:1003300036F90028F9D100210D4800F0F1FC0C48F5
:1003400000F0FDFC00EB00104400204602F0DFF955
:1003500005460022084B02F055F8074601F078FFE9
:1003600006490860022000F00BF8BDE8F0810000AB
:100370000010004000100140000034402C0000201C
:100380000149086070470000140401400146002044
:100390000022074B1B6803EA0102054B14331B685C
:1003A0000B4013B10AB1012000E0002070470000AB
:1003B00000040140002123498279002A3AD00A46EC
:1003C000126803689A430B461A600A1D1268036894
:1003D0009A430B1D1A60027911440A6803681A4394
:1003E0000A60184A0832126803689A43154B0833AA
:1003F0001A601A1D126803689A43124B0C331A6074
:100400004279102A0ED11A1F126803681A430D4B45
:1004100008331A601A1D126803681A43094B0C331B
:100420001A600DE00749427911440A6803681A43CB
:100430000A6005E0027911440A6803689A430A6079
:10044000704700000004014030B500228B071C0FEC
:100450000F2303FA04F20B4B8C1053F82430934310
:10046000084C8D1044F8253023468C1053F8243066
:100470008C07240F00FA04F42343024C8D1044F837
:10048000253030BD080001402DE9F041024600252D
:100490000026002000230024002791F803C00CF060
:1004A0000F0591F803C00CF0100CBCF1000F03D045
:1004B00091F802C04CEA050591F800C0BCF1000FAC
:1004C00031D0146800202BE04FF0010C0CFA00F33F
:1004D000B1F800C00CEA03069E4220D183004FF021
:1004E0000F0C0CFA03F7BC4305FA03FC4CEA0404B6
:1004F00091F803C0BCF1280F06D14FF0010C0CFAA3
:1005000000FCC2F814C00AE091F803C0BCF1480F27
:1005100005D14FF0010C0CFA00FCC2F810C0401CD1
:100520000828D1D31460B1F800C0BCF1FF0F34DD4E
:10053000546800202EE000F1080C4FF0010808FA82
:100540000CF3B1F800C00CEA03069E4221D18300EF
:100550004FF00F0C0CFA03F7BC4305FA03FC4CEA0E
:10056000040491F803C0BCF1280F05D100F1080C78
:1005700008FA0CF8C2F8148091F803C0BCF1480FD7
:1005800007D100F1080C4FF0010808FA0CF8C2F886
:100590001080401C0828CED35460BDE8F08102468C
:1005A000002093680B400BB1012000E00020704751
:1005B000416170470161704700BFFEE708B5012146
:1005C000042000F07DF80121082000F079F848208F
:1005D0008DF803004FF48070ADF8000003208DF813
:1005E000020069460848FFF74FFF48208DF80300D6
:1005F0000220ADF8000003208DF802006946034890
:10060000FFF742FF08BD000000080140000C014058
:1006100000BFFEE77047000070B5002100230F22E5
:10062000C47804B3154C246804F4E064C4F5E064B1
:10063000210AC1F10403CA40447804FA03F1847822
:100640001440214309010E4C0678A155047804F0AA
:100650001F050124AC4005786D11AD0005F1E025C2
:10066000C5F8004109E0047804F01F050124AC40FE
:10067000044D0678761145F8264070BD0CED00E07B
:1006800000E400E080E100E002490143024A116019
:10069000704700000000FA050CED00E07047000014
:1006A00029B1064AD2690243044BDA6104E0034AE5
:1006B000D2698243014BDA617047000000100240AA
:1006C00029B1064A92690243044B9A6104E0034A45
:1006D00092698243014B9A6170470000001002400A
:1006E00030B500210022002400232D4D6D6805F057
:1006F0000C0121B1042905D0082923D105E0294D99
:10070000056022E0274D05601FE0254D6D6805F46A
:100710007012234D6D6805F48034022505EB92427A
:100720001CB9214D554305600BE01D4D6D6805F466
:1007300000351DB11C4D5543056002E0194D554370
:10074000056002E0174D056000BF00BF144D6D68E5
:1007500005F0F0010909154D6B5C0568DD40456049
:100760000F4D6D6805F4E061090A104D6B5C45683A
:10077000DD4085600A4D6D6805F46051C90A0B4D76
:100780006B5C4568DD40C560054D6D6805F4404112
:10079000890B074D6B5CC568B5FBF3F5056130BD92
:1007A0000010024000127A0000093D000C000020F9
:1007B0001C000020704710B500F002F810BD0000CA
:1007C0000CB50020019000903348006840F4803060
:1007D0003149086000BF3048006800F400300090E4
:1007E0000198401C0190009818B90198B0F5A06FCD
:1007F000F1D12948006800F4003010B101200090C8
:1008000001E0002000900098012843D123480068AF
:1008100040F01000214908600846006820F00300FD
:1008200008600846006840F0020008601A48406806
:10083000194948600846406848600846406840F4E6
:10084000806048600846406820F47C104860084694
:10085000406840F4E81048600846006840F0807046
:10086000086000BF0C48006800F000700028F9D054
:100870000948406820F0030007494860084640687E
:1008800040F00200486000BF0348406800F00C00E0
:100890000828F9D10CBD00000010024000200240E1
:1008A0007047000010B51348006840F0010011497E
:1008B000086008464068104908400E4948600846EC
:1008C00000680E4908400B4908600846006820F49B
:1008D000802008600846406820F4FE0048604FF41D
:1008E0001F008860FFF767FF4FF000600449086051
:1008F00010BD0000001002400000FFF8FFFFF6FEF0
:1009000008ED00E0F0B50C46154600220021068CEB
:100910004FF6FE773E400684028B018C4FF60C7634
:1009200032407E1C06EA03162E433243104EB0427C
:100930000ED0104EB0420BD0B0F1804F08D00E4E0A
:10094000B04205D00D4EB04202D00D4EB04206D19D
:100950004FF6FD76314044F00106314305E04FF695
:10096000F576314044F00106314302830184F0BD45
:10097000002C014000340140000400400008004009
:10098000000C0040F0B50C46154600220021002660
:10099000078C4FF6EF7C07EA0C070784028B018C6B
:1009A0004FF6FF7707EA041640F6FF473A404FF646
:1009B000FF7707EA03373A434FF6FF7707EA052741
:1009C0003A43114FB8420ED0104FB8420BD0B0F19D
:1009D000804F08D00E4FB84205D00E4FB84202D01B
:1009E0000D4FB84206D14FF6DF77394046F0100779
:1009F000394305E04FF65F77394044F0100739433B
:100A000002830184F0BD0000002C0140003401404D
:100A10000004004000080040000C0040F0B50C4607
:100A20001546002200210026078C4FF6FF6C07EACE
:100A30000C070784828B018C4FF6FF7707EA0426A8
:100A40004FF60C773A404FF6FF7707EA03172F432C
:100A50003A43114FB8420ED0104FB8420BD0B0F10C
:100A6000804F08D00E4FB84205D00E4FB84202D08A
:100A70000D4FB84206D14FF6FF57394046F4807704
:100A8000394305E04FF2FF57394044F4807739434A
:100A900082830184F0BD0000002C0140003401403D
:100AA0000004004000080040000C0040F0B50C4677
:100AB0001546002200210026078C4EF6FF7C07EA2F
:100AC0000C070784828B018C4FF6FF7707EA043608
:100AD00040F6FF473A404FF6FF7707EA05273A43CB
:100AE0004FF6FF7707EA03373A43114FB8420ED06B
:100AF000104FB8420BD0B0F1804F08D00E4FB84223
:100B000005D00E4FB84202D00D4FB84206D14DF677
:100B1000FF77394046F48057394305E047F6FF57E1
:100B2000394044F48057394382830184F0BD00008A
:100B3000002C014000340140000400400008004047
:100B4000000C004010B50121880700F0FBF8F8B157
:100B50005E48007800F08000D0B15C48007820F05A
:100B600010005A4908700846007800F00F0020B9BC
:100B70000846007840F0400008705448007800F0C3
:100B80000F000E2805DA51480078401C4F490870C4
:100B90000AE04E48007820F080004C490870084672
:100BA000007800F0F00008700421080700F0CAF88F
:100BB000002811D04648006878B100214FF08040ED
:100BC00000F021FA0221480700F07AF93F48007846
:100BD00040F010003D49087072E04FF0804000F096
:100BE000ABF83C49088000214FF0804000F068F9E4
:100BF0003648007800F0100000285BD033480078B9
:100C000000F08000F0B333480088B0F5967F0DDD2A
:100C100030480088B0F5487F08DA2F480068400067
:100C20002D49086008460068086043E029480088AC
:100C3000B0F5AF6F0FDD27480088B0F5E16F0ADA35
:100C4000254800684000244908600846006840F0D4
:100C5000010008602EE01F48008840F69801884295
:100C600028DD1C48008840F62821884222DA1B48EB
:100C70000078401C194908701448007800F0F00012
:100C8000124900E001E0087014E01248008841F2C7
:100C9000680188420EDD0F48008841F25C218842DD
:100CA00008DA0A48007840F08000084908700020FF
:100CB0000A4908700548007820F0100003490870C0
:100CC0000521880700F026F810BD00002000002054
:100CD00004012142220000202400002028000020DE
:100CE00010B50121094800F02DF868B108480088C6
:100CF00040F40040064908800121044800F00DF846
:100D00000021024800F00CF810BD00000004004073
:100D100030000020CA4302827047CA4302827047F3
:100D200021B1028842F00102028004E002884FF6FD
:100D3000FE731A40028070470146088F70470146D3
:100D4000888C704730B50246002000230024158AA5
:100D500005EA0103958905EA010413B10CB10120EC
:100D600000E0002030BD000070B505460C46244868
:100D700085420ED0234885420BD0B5F1804F08D074
:100D80002148854205D02148854202D0204885422D
:100D900000D100E000BF208850B92389A288618873
:100DA0002846FFF7AFFDE188284600F02EF925E040
:100DB000208804280AD12389A28861882846FFF761
:100DC000E1FDE188284600F029F917E0208808288D
:100DD0000AD12389A28861882846FFF71FFEE1888F
:100DE000284600F028F909E02389A288618828466E
:100DF000FFF75CFEE188284600F026F970BD000090
:100E0000002C014000340140000400400008004074
:100E1000000C00401AB183890B43838102E083896F
:100E20008B4383817047000070B5002400220023AB
:100E3000058C4FF6FE7635400584028C8388048B42
:100E40004FF68F752C40B51E2C400D882C43751E17
:100E50002A400D892A434D882A43144DA8420BD0BD
:100E6000134DA84208D0134DA84205D0124DA842F8
:100E700002D0124DA84213D14FF6F7752A404D8982
:100E80002A434FF6FB752A408D882A434FF6FF65AB
:100E90002B404FF6FF552B408D892B43CD892B439B
:100EA00083800483CD888586028470BD002C014038
:100EB000003401400040014000440140004801402E
:100EC0000A460021018C4FF6DF7319404FF6FF737D
:100ED00003EA0213194301847047000070B500242F
:100EE00000220023058C4FF6FF6635400584028CF6
:100EF0008388848B4FF68F752C404FF6FC752C4001
:100F00000D882C434FF6FF552A400D894FF6FF768A
:100F100006EA05252A434D8806EA05252A43154D8C
:100F2000A84202D0144DA8421DD14FF2FF752A40AD
:100F30004D894FF6FF7606EA05252A434FF6FF3521
:100F40002A408D8806EA05252A434EF6FF752B4078
:100F50004DF6FF752B408D8906EA05152B43CD898B
:100F600006EA05152B4383808483CD888587028418
:100F700070BD0000002C01400034014070B500221B
:100F800000230024058C4EF6FF7635400584038C43
:100F90008488828B48F6FF752A404FF6FF452A4029
:100FA0000D884FF6FF7606EA05252A434DF6FF75B4
:100FB0002B400D8906EA05352B434D8806EA053599
:100FC0002B430B4DA84202D00A4DA84208D14BF644
:100FD000FF752C408D894FF6FF7606EA85152C4368
:100FE00084808283CD88A0F84050038470BD0000C7
:100FF000002C014000340140818670478187704792
:10100000A0F84010704781847047028B4FF6F3734D
:101010001A400283028B0A4302837047028B4FF20D
:10102000FF331A400283028B4FF6FF7303EA01235A
:101030001A4302837047828B4FF6F3731A40828300
:10104000828B0A4382837047828B4FF2FF331A40B0
:101050008283828B4FF6FF7303EA01231A43828354
:1010600070470000002202881D4B98420ED01D4B95
:1010700098420BD0B0F1804F08D01B4B984205D05E
:101080001A4B984202D01A4B984204D14FF68F73F4
:101090001A404B881A43174B984207D0164B984278
:1010A00004D04FF6FF431A40CB881A4302808B8846
:1010B00083850B8803850A4B98420BD0094B9842D5
:1010C00008D00E4B984205D00D4B984202D00D4BE4
:1010D000984201D10B7A0386012383827047000076
:1010E000002C014000340140000400400008004092
:1010F000000C00400010004000140040004001407F
:10110000004401400048014010B540F2255111480B
:1011100000F043F8E0B11048008818B901210F48E9
:10112000FFF7FEFD0B4800F0F3F8C4B200210B48B6
:10113000FFF769FF0A4808490988445406480088AF
:10114000401C0549088040F22551024800F00AF889
:1011500010BD0000004400403000002000040040AA
:101160000001002010B50022002340F66A14A142BD
:1011700000D100BF0A1201249440A3B2DC430480D2
:1011800010BD21B1828942F40052828104E082893B
:101190004DF6FF731A408281704770B502460024F5
:1011A00000230025002040F66A16B14200D100BF9E
:1011B000C1F3421501F01F03012606FA03F3012DC6
:1011C00002D19689334006E0022D02D1168A3340BF
:1011D00001E0968A33400C12012606FA04F41688C0
:1011E000344013B10CB1012000E0002070BDF0B517
:1011F0000346002400260025002040F66A17B94265
:1012000000D100BF1846C1F3421401F01F060127A8
:1012100007FA06F5012C01D10C3004E0022C01D1B3
:10122000103000E014301AB107682F43076002E065
:101230000768AF430760F0BD2DE9F04786B005466B
:101240000E460024A24600BFA1460027B08900B187
:1012500000BF2F462C8A4CF6FF700440F0880443F0
:101260002C82AC894EF6F3100440B08831890843D3
:10127000718908430443AC81AC8A4FF6FF400440B7
:10128000B0890443AC8201A8FFF72AFA1F488742BD
:1012900002D1DDF810A001E0DDF80CA0A88900F46F
:1012A000004040B10AEBCA0000EB0A103168490067
:1012B000B0FBF1F807E00AEBCA0000EB0A10316856
:1012C0008900B0FBF1F86420B8FBF0F004012009BC
:1012D000642101FB1089A88900F4004040B132204C
:1012E00000EBC900B0FBF1F000F00700044308E098
:1012F000322000EB09106421B0FBF1F000F00F0088
:1013000004432C8106B0BDE8F0870000003801409E
:1013100001468888C0F30800704700BFFEE710B59B
:1013200000F0D8FC00F062FC00F000FC00F0FCFED5
:10133000FFF744F900F046F800F034FF00F0CAFE71
:101340004FF4A060FFF7A0F910BD10B500F022F82F
:1013500030B900F02BF818B9282000F0B1FA18E0E5
:1013600000F018F838B900F021F8012803D14B201B
:1013700000F0D4FA0DE000F00DF8012806D100F0DD
:1013800015F818B94B2000F0B1FA02E04B2000F03C
:10139000ADFA10BD10B501210348FFF700F901288F
:1013A00000D110BD0020FCE7000C014010B58021E9
:1013B0000348FFF7F4F8012800D110BD0020FCE736
:1013C0000008014008B501210420FFF779F9012147
:1013D0000820FFF775F948208DF803000120ADF8CB
:1013E000000003208DF8020069460848FFF74CF81A
:1013F00048208DF803008020ADF8000003208DF810
:10140000020069460248FFF73FF808BD000C0140A2
:101410000008014010B5EE48008800F400400028A4
:101420007ED0EB480078EB4908700020EA49E94A91
:1014300012788854E7480078032803D0E5480078FC
:1014400004281CD1E5A1E448FEF7E0FEC0B9E44859
:101450000068012802D1642000F032FAE0480068F8
:1014600050B9412000F02CFA642000F06FFADC48FB
:101470000068401CDA4908600020D5490880A2E1D4
:10148000D8A1D548FEF7C2FEC0B9D5480068401CB7
:1014900010B9642000F0BCF9D148006850B941206F
:1014A00000F0B6F9642000F051FACD480068401E03
:1014B000CB4908600020C649088084E1CAA1C6481B
:1014C000FEF7A4FE00285AD1C5480068B8B96420C8
:1014D00000F0CAF90020BE49088008460078BD49DE
:1014E00008700020BC49BB4A1278885400BFBFA1D5
:1014F000B948FEF78BFE0028F9D100F0A1F9B848F1
:10150000006801281AD1642000F0AEF90020B0492B
:10151000088008460078AF4908700021AE4800E016
:1015200054E1AC4A1278815400BFB0A1AA48FEF73A
:101530006DFE0028F9D1412000F0C2F9A8480068EA
:10154000401CC0B9642000F08FF90020A049088039
:10155000084600789F49087000219F489D4A1278EC
:10156000815400BFA1A19C48FEF750FE0028F9D18C
:10157000412000F04DF900209549088023E19CA10D
:101580009548FEF743FE002858D195480068B8B941
:10159000642000F07FF900208D490880084600781B
:1015A0008C49087000208C498A4A1278885400BF00
:1015B0008EA18948FEF72AFE0028F9D100F040F9F3
:1015C00087480068012818D1642000F063F90020E2
:1015D0007F490880084600787E49087000207E49CF
:1015E0007C4A1278885400BF80A17B48FEF70EFE2B
:1015F0000028F9D1412000F063F979480068401CC7
:10160000C0B9642000F046F90020714908800846FE
:1016100000787049087000206F496E4A127888542B
:1016200000BF72A16C48FEF7F1FD0028F9D14120FE
:1016300000F0EEF8002066490880C4E06DA166481D
:10164000FEF7E4FD38B900F0FBF8002064490860BB
:101650005F490880B7E068A15F48FEF7D7FD30B961
:10166000642000F043F9002059490880ABE063A1F1
:101670005948FEF7CBFD30B9642000F04FF9002047
:10168000534908809FE05EA15348FEF7BFFD28BB89
:1016900000204F490880084600784E490870002015
:1016A0004D494C4A127888540DE000204849088082
:1016B000084600784749087000204749454A127893
:1016C000885400F073F94BA14348FEF79FFD0028B2
:1016D000EBD13F49088000F0B3F874E049A13E48DF
:1016E000FEF794FD28BB00203949088008460078A1
:1016F0003849087000203849364A127888540DE07D
:1017000000203349088008460078324908700020DC
:101710003149304A1278885400F0CCF935A12E486E
:10172000FEF774FD0028EBD12949088000F088F805
:1017300049E035A12848FEF769FD38BB002024495F
:101740000880084600782349087000202249214A71
:10175000127888540FE000201D4908800846007860
:101760001C49087000211C481A4A1278815400F064
:101770001DF900F09FF91FA11748FEF747FD00284B
:10178000E9D11349088000F05BF81CE01FA1124862
:10179000FEF73CFDB8B900200D49088008460078E6
:1017A0000C49087000210C480A4A1278815401E063
:1017B000FFF7CBFD00F05AFC5228F9D10020044974
:1017C000088000F03DF800200149088010BD0000AD
:1017D0003000002032000020000100204F4E410068
:1017E000080000204F4E42004F4E43004F4E46002F
:1017F0004F4E44004F4E49004F4E47004F4E480059
:101800004F4E31004F4E32004F4E33004F4E34009A
:1018100070B5044680210848FEF7CCFE1021074829
:10182000FEF7C8FEC4F16400C5B2284600F0EAFA2B
:10183000284600F0F3FA70BD000C0140000801409A
:1018400010B580210648FEF7B3FE10210548FEF7CB
:10185000AFFE002000F0D6FA002000F0DFFA10BD45
:10186000000C01400008014010B5044680210748E3
:10187000FEF79EFE10210648FEF79AFE002000F0BB
:10188000C1FA204600F0CAFA10BD0000000C014069
:101890000008014010B5044680210748FEF788FE85
:1018A00010210648FEF784FE204600F0ABFA002027
:1018B00000F0B4FA10BD0000000C01400008014027
:1018C00010B5044680210748FEF772FE1021064835
:1018D000FEF76EFE204600F095FA204600F09EFAD4
:1018E00010BD0000000C01400008014070B5044626
:1018F000C4F16400C5B210210648FEF75BFE28461D
:1019000000F080FA80210448FEF752FE204600F0E5
:1019100085FA70BD00080140000C014070B5044616
:1019200080210848FEF746FE10210748FEF740FEDA
:10193000C4F16400C5B2204600F064FA284600F005
:101940006DFA70BD000C01400008014000B503466F
:1019500003E04FF47A7000F005F8181EA3F10103BC
:10196000F7D100BD00EBC001C9004FF0E02251618A
:10197000002191610521116100BF4FF0E02109694B
:1019800001F480310029F8D004214FF0E0221161E8
:101990007047000010B5044800F004FA6420FFF717
:1019A000D5FF00F069F810BD0000B44270B500F03A
:1019B00031F8044600F03AF80546012C08D1012D13
:1019C00006D13C20FFF77CFF0A20FFF7BFFF1FE096
:1019D00044B9012D06D16420FFF7A0FF9620FFF740
:1019E000B5FF15E0012C07D135B96420FFF77EFF64
:1019F0009620FFF7ABFF0BE06420FFF709FF3220D2
:101A0000FFF7A4FF6420FFF789FF3220FFF79EFF56
:101A100070BD000010B54FF480710348FEF7BFFDA4
:101A20000446204610BD00000008014010B5022108
:101A30000248FEF7B4FD0446204610BD000C0140EC
:101A400010B5054800F0AEF94FF49670FFF77EFF31
:101A500000F012F810BD000000002F43FFF75FFCFC
:101A6000FFF7EEFE6420FFF771FF03E000F0E2F9FC
:101A7000FFF7D0FCFAE7000070B501210A48FEF735
:101A800099FD1420FFF76EFF01210748FEF790FD36
:101A900006490748006801F0B5F8054601F062F80C
:101AA0000446204670BD00000010014000002041A7
:101AB0002C00002070B5FFF76DFF0646002E2EDDCE
:101AC000B6F5C87F2BDAFFF7BBFEFFF7B9FF044678
:101AD000FA20FFF73BFF00F057F90546FA20FFF721
:101AE00035FFC82C09DAC82D07DA6420FFF7FEFE9F
:101AF0004FF42F70FFF72AFF17E0AC4207DD642098
:101B0000FFF7F4FE4FF49670FFF720FF0DE064201E
:101B1000FFF704FF4FF49670FFF718FF05E03C2035
:101B2000FFF7CEFE0A20FFF711FF70BD00B587B0AA
:101B300001210846FEF7C4FD01211020FEF7C0FD7B
:101B400001211020FEF7ACFD10208DF81B000120B4
:101B5000ADF8180003208DF81A0006A92148FEF7F9
:101B600093FC48208DF81B000220ADF818000320DC
:101B70008DF81A0006A91B48FEF786FC0220049087
:101B800001208DF8160000208DF8140008208DF833
:101B9000150004A8FEF70EFC01210220FEF754FCFC
:101BA00007208DF80C0001208DF80F0002208DF821
:101BB0000D008DF80E0003A8FEF72EFD0020ADF8F5
:101BC0000600ADF8020041F28730ADF8040041F69E
:101BD0001F40ADF8000069460348FFF743FA07B01D
:101BE00000BD0000001001400010004000B589B0A9
:101BF00001210420FEF754FD01210420FEF760FDC1
:101C000001210820FEF75CFD10208DF807008020E0
:101C1000ADF8040003208DF8060001A92A48FEF75C
:101C200033FC10208DF80700ADF8040003208DF878
:101C3000060001A92548FEF727FC18208DF80700AB
:101C40004FF48070ADF8040003208DF8060001A960
:101C50001D48FEF719FC18208DF807004FF400709E
:101C6000ADF8040003208DF8060001A91648FEF720
:101C70000BFC0020ADF81E00ADF81A006320ADF893
:101C80001C0041F61F40ADF8180006A91048FFF7E8
:101C9000E9F97020ADF808000020ADF8100001202F
:101CA000ADF80A000020ADF80E0002A90848FFF7C1
:101CB00015F902A90648FFF761F901210448FFF769
:101CC0002FF809B000BD0000000C014000080140E1
:101CD0000008004000B589B001210420FEF7F0FCA7
:101CE00001210846FEF7DCFC28208DF823000220A5
:101CF000ADF8200003208DF8220008A92148FEF746
:101D0000C3FB02211F48FEF755FC0020ADF81A0066
:101D1000ADF8160042F20F70ADF818004720ADF88C
:101D2000140005A94FF08040FFF79CF90420ADF89E
:101D300008000320ADF810000020ADF80A00ADF84F
:101D40000E000120ADF80C0002A98007FFF70CF887
:101D500001218807FEF7E4FF1C208DF80400012014
:101D60008DF8070002208DF805008DF8060001A807
:101D7000FEF752FC012205218807FFF74BF809B056
:101D800000BD00000008014010B5054800F00AF849
:101D90004FF49670FFF7DAFDFFF76EFE10BD0000FE
:101DA0000000A0402DE9F14F82B0029800F0AEFE95
:101DB000804600220F4B00F0C1FC064600220E4B6D
:101DC00000F020FB044600220C4B00F073FA824620
:101DD00000F070FC80B2019000F000FF02900298C9
:101DE00000F0DCFE84B221460548FFF705F9BDE8A6
:101DF000FE8F0000000049400000224000406F407C
:101E0000000C004070B50446C4F16400C5B2294618
:101E10000148FFF7F5F870BD0008004070B50446B2
:101E2000C4F16400C5B229460148FFF7E7F870BD68
:101E30000008004010B500F019F98A4908700846FA
:101E4000007890287ED00CDC30287CD004DC02287E
:101E500043D0222828D146E062280FD06828F9D143
:101E6000C7E0B02870D004DC98286ED0A828F1D143
:101E70001BE0C22870D0E028ECD1A0E07A480068CE
:101E8000052802D16420FFF71BFD7748006805286C
:101E90000ADA4120FFF714FD6420FFF757FD72486E
:101EA0000068401C70490860D9E06F480068401D18
:101EB00010B96420FFF7ACFC6B48006810F1050F07
:101EC0000ADD4120FFF7A4FC6420FFF73FFD6648D0
:101ED0000068401E64490860C1E000206249086053
:101EE000FFF7AEFCBBE06048006838B96420FFF73C
:101EF000BBFC1420FFF72AFDFFF7A2FC5A4800683C
:101F000005280EDC5848006800280ADD6420FFF729
:101F1000ABFC00BF00F0AAF82228FBD04120FFF75D
:101F2000CFFC5148006810F1050F14DB4E480068E3
:101F3000002810DA6420FFF797FC00BF00F096F845
:101F4000222804E048E07DE06DE05FE004E0F5D0A9
:101F50004120FFF75DFC82E04348006838B9642007
:101F6000FFF798FC1420FFF7F1FCFFF769FC3E48EF
:101F7000006805280EDC3C48006800280ADD642063
:101F8000FFF788FC00BF00F071F82228FBD0412049
:101F9000FFF796FC3448006810F1050F0EDB32485D
:101FA000006800280ADA6420FFF774FC00BF00F024
:101FB0005DF82228FBD04120FFF72AFC4FE0642087
:101FC000FFF794FC00BF00F051F8E028FBD000F0D0
:101FD0004DF80028F7D042E06420FFF79FFC00BFD7
:101FE00000F044F89028FBD000F040F80028F7D02B
:101FF00035E001E0FFF7DAFC00F038F85228F9D1BB
:10200000FFF71EFC6420FFF7A1FC28E001E0FFF7CA
:1020100051FD00F02BF85228F9D1FFF711FC642094
:10202000FFF794FC1BE003E0FFF7C0FCFFF742FD65
:1020300000F01CF85228F7D1FFF702FC6420FFF7EC
:1020400085FC0CE001E0FFF780F900F00FF8522862
:10205000F9D1FFF7F5FB6420FFF778FC00BF00BF64
:1020600010BD0000000000200400002010B500207A
:10207000154B1B7803F040032BB3144B1B68190E50
:10208000124B1B68C3F30742D343DBB28B420BD125
:1020900051B90E4B1B88C3F307210C4B1A78D3435D
:1020A000DBB28B4200D1084620B1074B1B7803F00E
:1020B000800343B9044B1B7823F04003024C237088
:1020C0000023034C237010BD2000002024000020BA
:1020D000280000201FB501210220FEF7E1FA0020B0
:1020E000ADF80A00ADF8060042F20F70ADF8080036
:1020F0004720ADF8040001A90A48FEF7B3FF01220A
:1021000011460848FEF786FE1D208DF800000120CC
:102110008DF803008DF801008DF802006846FEF787
:102120007BFA1FBD0004004000B589B001210820E2
:10213000FEF7B6FA18208DF823000120ADF8200034
:1021400003208DF8220008A91448FEF79DF900200D
:10215000ADF81A0042F20F70ADF818008F20ADF8FC
:1021600014000020ADF8160005A90D48FEF77AFF0F
:102170006020ADF804000020ADF80C000120ADF89F
:1021800006000020ADF80A0001A90548FEF74CFE44
:1021900001210348FEF7C4FD09B000BD000801405D
:1021A000000C004000B587B001214804FEF778FA22
:1021B00001210420FEF784FA18208DF81B0004206A
:1021C000ADF8180003208DF81A0006A91E48FEF786
:1021D0005BF904208DF81B000820ADF818000320DF
:1021E0008DF81A0006A91848FEF74EF94FF416505C
:1021F00002900020ADF814000C20ADF81200002071
:10220000ADF81000ADF80E00ADF80C0002A90F48B3
:10221000FFF712F801210D48FEF7B3FF012240F24B
:1022200025510A48FEF7E3FF26208DF8040001201F
:102230008DF8070002208DF805008DF8060001A832
:10224000FEF7EAF907B000BD000801400044004075
:1022500021F00042A2F16052B2F5801F01F000436C
:1022600028BFD2F17F6C0BD95FEA001C43EAC2029F
:1022700042EB507018BF704728BF20F00100704734
:10228000B2F5801FBCBF184670474FEA410C1CF5E1
:10229000001F02D2084600F07CBD70B500F0F8FACD
:1022A00000000089FFF7F6BF4FF00040A0F5800066
:1022B0007047000010B591EA030F48BF83F0004358
:1022C00000F14283841A71EB030C05D2121943EB1F
:1022D0000C03001B61EB0C01DFF824E14FEA115401
:1022E000A4EB135C1EEA430F18BF9EEA445F73D051
:1022F00023EA0E03DCF1200E21EA045143F480139B
:1023000032D322FA0CFE10EB0E0023FA0CFE41EB46
:102310000E01CCF1200E03FA0EFE10EB0E0051F16F
:102320000001B1F5801FCCF1200E32D201EB045137
:1023300012FA0EF2BDE8104058BF7047401C38BF7B
:102340005FEA420218BF7047002814BF20F0010066
:1023500041F100014FEA410313F5001F38BF7047F8
:10236000A1F1C04100F0E2BA012A43EB0302ACF153
:10237000200CDCF11F0E32BF4FF0000E23FA0CF3DD
:1023800010EB030041EB0451B4EB115FD0D0A1EB93
:10239000045101F5801149085FEA300001EB045156
:1023A0000ED350F1000038BF12FA0EFE08D1BDE87E
:1023B0001040C9E7401C38BF5FEA4202CAD1C3E7F8
:1023C000BDE810404FEA410313F5001F38BF7047C6
:1023D000A1F1C04100F0AABA9EEA445F08D011EA18
:1023E0005E0FBDE8104004BF01F0004100207047BF
:1023F000BDE8104070B500F04BFA00BF64FBBE3E74
:102400000000E0FF2DE9C04130B4DFF8A0C23CEA93
:10241000111418BF3CEA131400F0EC8081EA0305A4
:102420001CEA111444EAD57418BF1CEA131500F015
:10243000C780A4EB05044FF0004545EAC12145EAF9
:10244000C32341EA505143EA525304F17F74994245
:1024500004F500344FEAC0204FEAC22208BF904280
:1024600000F09C804FEA13650FF24016765D4FEA4C
:10247000134506FB05F7C7F1807706FB07F74FEA20
:10248000D737A7FB03687642C8F58038A7FB06CE8E
:1024900038BFA8F1010807FB08E64FF0000EA6FBC5
:1024A000028CE6FB03CEDCF1000CCEF1004E38BF0F
:1024B000AEF1010EA6FB0C584FF000074FF00005DF
:1024C000E6FB0E87A1FB08C6A0FB07CE16EB0E06A7
:1024D00045F10005E1FB076515F1E04E7EBFA4F56F
:1024E00080345FEA46066D4116F1800745F100052C
:1024F0004FEA17274FEA066647EA0567A6F1DE4668
:10250000B6F1805F4FEA15251FD9384624F0010C3B
:1025100005EBC471BCF1FE6F01EB0C1102D8F0BCED
:10252000BDE8008124425CBF01F5801E9EEAC47FA5
:1025300002D4F0BCBDE80081244238D4F0BCA1F143
:10254000C041BDE8004100F0F1B94FEAD22242EAB1
:1025500043524FEAD323A7FB02864FEAD02040EA3A
:10256000415007FB03661EEA0E0F4FEAD12105FB1F
:10257000026658BFA6EB0056B6EB00564FEA520E65
:102580004EEAC37E18EB0E0E56EB530EBDD518EB7C
:1025900002085E417F1C55F10005B6E74FF4801537
:1025A0004FF000074FF000064FF00008ADE7F0BC19
:1025B0004FF0000001F1C04101F00041BDE8008191
:1025C00011EA0C1F0CEA131500D00CE013EA0C1FE3
:1025D00000F025804FF00000F0BC81EA030101F01B
:1025E0000041BDE80081F0BCBDE8004181EA030183
:1025F00000F09CB9F0BCBDE8004170B500F048F9AE
:10260000097EFC3E00F007B881EA03014FF00000AC
:1026100001F00041704781EA030100F087B9F0BC86
:10262000BDE800414FF0000021497047FFFDFBF974
:10263000F7F5F4F2F0EEEDEBE9E8E6E4E3E1E0DEF5
:10264000DDDBDAD8D7D5D4D3D1D0CFCDCCCBCAC867
:10265000C7C6C5C4C2C1C0BFBEBDBCBBBAB9B8B78E
:10266000B6B5B4B3B2B1B0AFAEADACABAAA9A8A881
:10267000A7A6A5A4A3A3A2A1A09F9F9E9D9C9C9B4F
:102680009A999998979796959594939392919190FA
:102690008F8F8E8E8D8C8C8B8B8A8989888887878B
:1026A0008685858484838382828181800000FF0700
:1026B0000000F87F4FEA1153A3F58063D3F11E03A6
:1026C000A8BFD3F1200C08DB4FF0004242EAC12240
:1026D00052EA505232FA03F0704709420BD4102BE1
:1026E000C4BF0020704703F5787CBCF1FF3F05D0E4
:1026F0004FF0FF3070474FF00000704770B500F0AA
:10270000C7F800BF4992248000207047F0E710F01E
:10271000004248BF4042B0FA80F310FA03F10AD0F9
:10272000C3F11D0303F580634FEA415002EB0352EE
:1027300002EBD12170474FF000007047DFF848C12D
:1027400070B51CEA111E1EBF1CEA13159EEA0C0F81
:1027500095EA0C0F00F06F8081EA030423EA4C1322
:102760004EEAD47E21EA4C1141F4801143F48013E7
:10277000AE44A1FB024CA0FB0365AEF17F7E36198F
:1027800055EB0C05A1FB034C4CF10003A0FB021C14
:1027900016EB0C06654153F10003094218BF46F0E1
:1027A000010613F4007F0BD14FEA03314FEA0530E5
:1027B000340341EA155140EA16506FF003020AE073
:1027C0004FEAC3214FEAC520F40241EA555140EADD
:1027D00056506FF0020202EB2E4201EB025585EAE1
:1027E000CE710AD05FEA440C18BF24F0004450F1C7
:1027F000000041F1000120EAD47040F2FE7C624505
:1028000000D270BDA84214BF4FF080444FF0404446
:10281000002E08BF0024BEF1806FA8BFA1F1C04107
:10282000BDE8704080F282804FF0000001F1C041AD
:1028300001F0004170479EEA0C0F0CEA131518BF17
:1028400095EA0C0F06D04FF0000081EA030E0EF05F
:10285000004170BD00F01CF88900013E00F007B88F
:1028600000F009B84FEA430C5FEA5C5C08D081EAEB
:10287000030100F05BB84FEA410C5FEA5C5CF6D103
:102880004FF00000014970470000FF070000F87F8B
:102890000EF1020E2EF0030E5EF8046B364205D4E4
:1028A000012A43EB030515F5001F12D8012841EB5F
:1028B000010C1CF5001F0CD80ED14FEAD17C15F588
:1028C000001F0CEB4C0C0CF1020C08BF4CEBD37C42
:1028D00004E04FF0080C01E04FEAD37C0CEB4C0510
:1028E00026FA05F606F00706B6F1040C06D20EEB42
:1028F000860CBDE870404CF0010C6047DFE80CF03E
:10290000090B02024FF000414FF00000A1F5002139
:1029100070BD19461046012851EB010418BFD4F5CB
:10292000001484BF002001F0004170BD0808A0F52C
:1029300000114FEA3101704710B591EA030F48BF0B
:1029400083F000433FF5BEAC841A71EB030C07D251
:1029500012198CF0004C43EB0C03001B61EB0C01D3
:10296000DFF8A4E14FEA1154A4EB135C1EEA430F15
:1029700018BF9EEA445F00F0B08023EA6E03524223
:1029800021EA0451C3EB6E0338BF5B1EDCF1200E5D
:1029900025D322FA0CFE10EB0E0043FA0CFE41EB9D
:1029A0000E01CCF1200E03FA0EFE10EB0E0051F1D9
:1029B0000001CCF1200E29D412FA0EF201EB0451E1
:1029C000BDE8104058BF7047401C1CBFB2F1004F1B
:1029D000704700280CBF491C20F00100704712EB23
:1029E000020E43EB030218BF4FF0010E4EEA420203
:1029F000ACF1200CDCF11E0E54D943FA0CFE10EBA6
:102A00000E0051F1FF31CCF11E0ED5D50EF1010EA5
:102A100012FA0EFE404141EB010101EB445C5FEA1A
:102A20005C5C10D910EBDE7001EB045138BFBEF1D5
:102A3000004FBDE8104018BF704700280CBF491C6C
:102A400020F00100704730D24FEAD42C11F500116C
:102A500024F400641BD0B1FA81F20B3AA41AA41E2C
:102A6000D2F12003914030FA03F31943904001EB77
:102A7000CC71002C01EB0451BDE81040A8BF704799
:102A800001F1C0414FF0000001F000417047B0FA81
:102A900080F310FA03F100D110BDE41A173C480589
:102AA000C90AE4E701EB045110BD491001EB0451E0
:102AB000BDE810404FEA300002E04FF000017047DF
:102AC0004A0008BF0042F8D0B2F5001F28BF704787
:102AD00001F000414FF0000070479EEA445F07D0CC
:102AE00011EA5E0FBDE8104004BF002100207047CE
:102AF000BDE8104070B5FFF7CBFE00BF40DFF63EEB
:102B000083F00041104670470000E0FF43004FEAA9
:102B1000D30C4FEA3C0C43401FBF40070CF16051FF
:102B200013F0FE4F70471CF0006F03D100200CF033
:102B3000004170470CF0004343EA507010B540EA82
:102B4000CC0000F0E0F800BF000000924FEA000166
:102B5000FFF7ECBE4FF000414FF00000A1F500215F
:102B60007047000041000B0ED3F19E0208D950F4CB
:102B700000034FEA032323FA02F048BF40427047A4
:102B800010B500F0C0F800BF4992248000207047C3
:102B90006FF0004282EA200070470000C10DD1F1C1
:102BA0009E0206DB4FEA002343F0004323FA02F0C3
:102BB0007047004207D54FEA4001B1F1FE4F02D203
:102BC0004FF00000704710B500F09DF84992248046
:102BD000002070476FEA200070470000B0FA80F3D1
:102BE00010FA03F2C3F19D030AD0D90501EB1220BC
:102BF000530638BF704700F1010008BF20F0010004
:102C0000704700004FF47F0C1CEAD0121EBF1CEA74
:102C1000D11392EA0C0F93EA0C0F00F0478090EA70
:102C2000010F48BF42F480724FF0004C4CEA002084
:102C30004CEA012102EB0302A0FB0113A2F5000202
:102C4000002918BF43F001035B0028BF4FEA33039C
:102C500042EB22425FEA132C4CEBC2502EBFBCEB7E
:102C6000436FB2F57C0F70474FEA036CBCF1004F25
:102C700008BF20F00100B2F57C0F38BF70470BD5BC
:102C800082F0FF0212F5803FC8BF704700F1C040DC
:102C9000D8BF00F00040704700F5000C5FEA4C0C14
:102CA00048BF7047B0F1C04000F073B890EA010F20
:102CB0000CEAD11348BF42F48072624538BF6345C5
:102CC00004D280EA010000F00040704710B500F027
:102CD0001AF800BF8900013E00F007B800F009B8FB
:102CE0005FEA410C5FEA1C6C08D080EA010000F04A
:102CF00050B85FEA400C5FEA1C6CF6D14FF0004020
:102D0000A0F5800070470EF1020E2EF0030E5EF863
:102D1000044B244204D44FEA4102B2F17F4F11D850
:102D20004FEA4003B3F17F4F0CD80ED14FEAD07C6D
:102D3000B2F17F4F0CEB4C0C0CF1020C08BF4CEBCA
:102D4000D17C04E04FF0080C01E04FEAD17C0CEBA1
:102D50004C0324FA03F404F00704B4F1040C06D283
:102D60000EEB840CBDE810404CF0010C6047DFE82E
:102D70000CF0070802024FF00040A0F5800010BDE3
:102D80000846420018BFD2F1807288BF00F00040B0
:102D900010BDFF2141EAD050C0057047BC2D00088E
:102DA00000000020340000006C010008F02D000835
:102DB00034000020F4070000880100080000000033
:102DC00000000000000000000000000001020304F9
:102DD00001020304060708090204060800000000B7
:102DE00000000000000000000000000000000000E3
:0400000508000131BD
:00000001FF
